:020000040800F2
:1000000000500020A10200087D02000881020008C3
:1000100085020008890200088D0200080000000027
:100020000000000000000000000000009102000835
:100030009502000800000000990200089D020008D7
:10004000E9020008E9020008E9020008E9020008E4
:10005000E9020008E9020008E9020008E9020008D4
:10006000E9020008E9020008E9020008E9020008C4
:10007000E9020008E9020008E9020008E9020008B4
:10008000E9020008E9020008E9020008E9020008A4
:10009000E9020008E9020008E9020008E902000894
:1000A000E9020008E9020008E9020008E902000884
:1000B000E9020008E9020008E9020008E902000874
:1000C000E9020008E9020008E9020008E902000864
:1000D000E9020008E9020008E9020008E902000854
:1000E000E9020008E9020008E90200080000000037
:1000F0000000000000000000000000000000000000
:0C01000000000000000000005FF808F1A3
:10010C000348044B834202D0034B03B1184770479A
:10011C00300400203004002000000000054806498F
:10012C000B1AD90F01EBA301491002D0034B03B1F9
:10013C0018477047300400203004002000000000F5
:10014C0010B5064C237843B9FFF7DAFF044B13B113
:10015C000448AFF300800123237010BD300400204D
:10016C00000000000004000808B5044B1BB1044952
:10017C000448AFF30080BDE80840CFE70000000062
:10018C003404002000040008002301461A461846D7
:10019C0000F03AB838B5084B084D5B1B9C1007D0E3
:1001AC00043B1D44013C55F804399847002CF9D107
:1001BC00BDE8384000F024B92804000824040008E5
:1001CC0070B50D4E0D4D761BB61006D0002455F8AB
:1001DC00043B01349847A642F9D1094E094D00F071
:1001EC0009F9761BB61006D0002455F8043B0134EF
:1001FC009847A642F9D170BD1C0400081C040008E5
:10020C00240400081C04000870B5174C2568D5F8A8
:10021C004841DCB165681F2D23DC80B14FF0010C27
:10022C0004EB850ECEF88820D4F888610CFA05F220
:10023C0016430228C4F88861CEF808310BD06B1C29
:10024C0002356360002044F8251070BD05F5A674D6
:10025C00C5F84841DEE7D4F88C311343C4F88C312F
:10026C00EDE74FF0FF3070BD18040008FEE700BF4B
:10027C00704700BFFEE700BFFEE700BFFEE700BF10
:10028C00FEE700BF704700BF704700BF704700BF5C
:10029C00704700BF00F024F80B480C490C4A0023AF
:1002AC0002E0D458C4500433C4188C42F9D3094A20
:1002BC00094C002301E013600432A242FBD3FFF788
:1002CC007FFFFFF7D3FF70470000002030040020B1
:1002DC0028040008300400204C040020FEE7000035
:1002EC0010B400204FF41F04394A3A4B116883B004
:1002FC0041F00101116051680B405360136823F009
:10030C00847323F480331360136823F48023136005
:10031C00536823F4FE0353609460009001901368BB
:10032C0043F48033136003E0009BB3F5A06F09D056
:10033C00136803F400330193009B01330093019B7A
:10034C00002BF1D0224B1B6813F4003318BF012390
:10035C000193019B012B06D04FF000621E4B9A605B
:10036C0003B010BC70471D4A194B116841F01001C5
:10037C001160116821F003011160116841F0020154
:10038C0011605A685A605A685A605A6842F480621E
:10039C005A605A6822F47C125A605A6842F4E81285
:1003AC005A601A6842F080721A601A689201FCD581
:1003BC005968074A21F003015960596841F002015C
:1003CC005960536803F00C03082BFAD1C4E700BF43
:1003DC00001002400000FFF800ED00E00020024099
:1003EC00024B13B10248FFF7CFBE7047000000006C
:1003FC00A1010008F8B500BFF8BC08BC9E467047C8
:0C040C00F8B500BFF8BC08BC9E46704765
:0404180008000020B8
:08041C00ED0300087501000862
:040424004D0100087E
:10042800080000200000000000000000F402002086
:100438005C030020C403002000000000000000004E
:1004480000000000000000000000000000000000A4
:100458000000000000000000000000000000000094
:100468000000000000000000000000000000000084
:100478000000000000000000000000000000000074
:100488000000000000000000000000000000000064
:100498000000000000000000000000000000000054
:1004A8000000000000000000000000000000000044
:1004B8000000000000000000000000000000000034
:1004C8000000000000000000000000000000000024
:1004D80001000000000000000E33CDAB34126DE6C1
:1004E800ECDE05000B00000000000000000000002A
:1004F80000000000000000000000000000000000F4
:1005080000000000000000000000000000000000E3
:1005180000000000000000000000000000000000D3
:1005280000000000000000000000000000000000C3
:040000050800010CE2
:00000001FF
