:020000040800F2
:100000000050002021040008FD030008010400083E
:1000100005040008090400080D04000800000000A1
:1000200000000000000000000000000011040008B3
:100030001504000800000000190400081D04000851
:1000400069040008690400086904000869040008DC
:1000500069040008690400086904000869040008CC
:1000600069040008690400086904000869040008BC
:1000700069040008690400086904000869040008AC
:10008000690400086904000869040008690400089C
:10009000690400086904000869040008690400088C
:1000A000690400086904000869040008690400087C
:1000B000690400086904000869040008690400086C
:1000C000690400086904000869040008690400085C
:1000D000690400086904000869040008690400084C
:1000E00069040008690400086904000800000000B1
:1000F0000000000000000000000000000000000000
:0C01000000000000000000005FF808F1A3
:10010C0010B5054C237833B9044B13B10448AFF345
:10011C0000800123237010BD2C040020000000007F
:10012C00E009000808B5034B1BB103490348AFF3C2
:10013C00008008BD0000000030040020E009000829
:10014C0010B5074C00220821204600F01DFB00BF13
:10015C0000BF01222046BDE81040082100F014BB6E
:10016C000008014038B508250446002240211248F9
:10017C0000F00AFB04F0800220210F4800F004FB81
:10018C00012240210C4800F0FFFA002240210A48CD
:10019C0000F0FAFA6400013DE4B2E6D101228021BC
:1001AC00054800F0F1FA00BF00BF80212A46BDE8E7
:1001BC003840014800F0E8BA0008014098B170B42A
:1001CC004FF0E022002605250424411E064850610C
:1001DC00966115611369DB03FCD501394B1C146165
:1001EC00F5D170BC704770474019010000B5012172
:1001FC0083B0042000F0CEFA0121082000F0CAFAE6
:10020C0041F20302F82301A90848ADF80620ADF825
:10021C00043000F025F940F20343054801A9ADF87C
:10022C00043000F01DF903B05DF804FB0008014038
:10023C00000C014038B50546104CFFF781FF2046F5
:10024C000022012100F0A0FA00220221204600F039
:10025C009BFA2846FFF786FF01224FF48061204667
:10026C0000F092FA0120FFF7A9FF2046BDE83840C4
:10027C0000224FF4806100F087BA00BF000C0140EF
:10028C0038B50546FFF75CFF01220F4C114620469E
:10029C0000F07AFA00220221204600F075FA284676
:1002AC00FFF760FF01224FF48061204600F06CFAEA
:1002BC000120FFF783FF2046BDE8384000224FF4B1
:1002CC00806100F061BA00BF000C014010B53D4CDC
:1002DC00FFF736FF20460022012100F055FA0022DC
:1002EC000221204600F050FA3820FFF73BFF012294
:1002FC004FF48061204600F047FA0120FFF75EFFC3
:10030C00204600224FF4806100F03EFAFFF718FF00
:10031C0020460022012100F037FA0022022120465B
:10032C0000F032FA0C20FFF71DFF01224FF4806120
:10033C00204600F029FA0120FFF740FF204600225A
:10034C004FF4806100F020FAFFF7FAFE20460022FD
:10035C00012100F019FA00220221204600F014FAC3
:10036C000120FFF7FFFE01224FF48061204600F0D0
:10037C000BFA0120FFF722FF204600224FF4806188
:10038C0000F002FAFFF7DCFE20460022012100F00B
:10039C00FBF900220221204600F0F6F90620FFF7B7
:1003AC00E1FE01224FF48061204600F0EDF90120BE
:1003BC00FFF704FF2046BDE8104000224FF4806197
:1003CC0000F0E2B9000C014010B5FFF70FFFFFF78A
:1003DC007DFF8020FFF72EFF4124E0B2FFF750FF96
:1003EC0001344FF4FA70FFF7E9FE5B2CF5D1F3E71B
:1003FC00704700BFFEE700BFFEE700BFFEE700BF8F
:10040C00FEE700BF704700BF704700BF704700BFDA
:10041C00704700BF00F0CAF90B480C490C4A002386
:10042C0002E0D458C4500433C4188C42F9D3094A9E
:10043C00094C002301E013600432A242FBD300F00C
:10044C0035FAFFF7C1FF7047000000202C04002094
:10045C00080A00082C0400204C040020FEE70000D1
:10046C0000B591F803C01CF0100F18BF8B780CF07E
:10047C000F0E18BF4EEA030E0B88DAB2002A36D0E4
:10048C00BCF1480F026800F0B380BCF1280F00F0FB
:10049C003A81D90744BF22F00F024EEA02029907B3
:1004AC0044BF22F0F00242EA0E12590744BF22F474
:1004BC00706242EA0E22190744BF22F4704242EAEB
:1004CC000E32D90644BF22F4702242EA0E4299063B
:1004DC0044BF22F4700242EA0E52590644BF22F085
:1004EC00706242EA0E62190600F10A810260FF2B6B
:1004FC004AD9BCF1480F426848D1D90506D54FF40A
:10050C00807122F00F024EEA02020161990506D5B4
:10051C004FF4007122F0F00242EA0E12016159050B
:10052C0006D54FF4806122F4706242EA0E2201611A
:10053C00190506D54FF4006122F4704242EA0E32DE
:10054C000161D90406D54FF4805122F4702242EA9D
:10055C000E420161990406D54FF4005122F4700249
:10056C0042EA0E520161590406D54FF4804122F043
:10057C00706242EA0E6201611B0404D54FF4004321
:10058C006EF31F72036142605DF804FBBCF1280F2F
:10059C006ED0D90544BF22F00F024EEA0202990533
:1005AC0044BF22F0F00242EA0E12590544BF22F475
:1005BC00706242EA0E22190544BF22F4704242EAEC
:1005CC000E32D90444BF22F4702242EA0E4299043E
:1005DC0044BF22F4700242EA0E52590444BF22F086
:1005EC00706242EA0E621B04CDD56EF31F72CAE72D
:1005FC00D90705D5012122F00F024EEA0202016152
:10060C00990705D5022122F0F00242EA0E1201618F
:10061C00590705D5042122F4706242EA0E220161C9
:10062C00190705D5082122F4704242EA0E32016105
:10063C00D90605D5102122F4702242EA0E4201613E
:10064C00990605D5202122F4700242EA0E5201616E
:10065C00590605D5402122F0706242EA0E62016112
:10066C0019067FF543AF80216EF31F7201613DE7E0
:10067C00D90506D54FF4807122F00F024EEA020222
:10068C004161990506D54FF4007122F0F00242EA5F
:10069C000E124161590506D54FF4806122F4706247
:1006AC0042EA0E224161190506D54FF4006122F48D
:1006BC00704242EA0E324161D90406D54FF48051A2
:1006CC0022F4702242EA0E424161990406D54FF49D
:1006DC00005122F4700242EA0E524161590406D5CF
:1006EC004FF4804122F0706242EA0E6241611B04B9
:1006FC007FF549AF4FF400436EF31F72436142E73D
:10070C006EF31F72F2E6D90705D5012122F00F0214
:10071C004EEA02024161990705D5022122F0F0024E
:10072C0042EA0E124161590705D5042122F4706288
:10073C0042EA0E224161190705D5082122F47042C4
:10074C0042EA0E324161D90605D5102122F47022FD
:10075C0042EA0E424161990605D5202122F470022D
:10076C0042EA0E524161590605D5402122F07062D1
:10077C0042EA0E62416119067FF5B8AE80216EF334
:10078C001F724161B2E600BF0AB10161704741615D
:10079C00704700BF044A936911B1184390617047C8
:1007AC0023EA0000906170470010024010B4002052
:1007BC004FF41F04394A3A4B116883B041F00101E0
:1007CC00116051680B405360136823F0847323F459
:1007DC0080331360136823F480231360536823F46D
:1007EC00FE035360946000900190136843F48033CF
:1007FC00136003E0009BB3F5A06F09D0136803F4FA
:10080C0000330193009B01330093019B002BF1D02B
:10081C00224B1B6813F4003318BF01230193019B77
:10082C00012B06D04FF000621E4B9A6003B010BC37
:10083C0070471D4A194B116841F010011160116885
:10084C0021F003011160116841F0020111605A6836
:10085C005A605A685A605A6842F480625A605A6800
:10086C0022F47C125A605A6842F4E8125A601A68F0
:10087C0042F080721A601A689201FCD55968074AD6
:10088C0021F003015960596841F002015960536825
:10089C0003F00C03082BFAD1C4E700BF0010024090
:1008AC000000FFF800ED00E00020024070B50D4E96
:1008BC000D4D761BB61006D0002455F8043B0134C0
:1008CC009847A642F9D1094E094D00F083F8761BE2
:1008DC00B61006D0002455F8043B01349847A642C4
:1008EC00F9D170BDFC090008FC090008040A0008D5
:1008FC00FC090008024B13B1024800F005B8704720
:10090C000000000021090008002301461A46184681
:10091C0000F01AB838B5084B084D5B1B9C1007D07B
:10092C00043B1D44013C55F804399847002CF9D17F
:10093C00BDE8384000F054B8080A0008040A000862
:10094C00704700BF704700BF2DE9F047DFF87CA06F
:10095C000646DAF8000098460F469146FFF7F0FF7E
:10096C001B4B1B68D3F8484124B365681F2D26DC4C
:10097C005EB96B1C0235DAF80000636044F8257030
:10098C00FFF7E0FF0020BDE8F087012304EB8501B1
:10099C00C1F88890D4F88821AB401A43022EC4F8D1
:1009AC008821C1F80881E4D1D4F88C211343C4F810
:1009BC008C31DEE703F5A674C3F84841D5E7DAF8C5
:1009CC000000FFF7BFFF4FF0FF30DCE728040020EA
:1009DC00F8090008F8B500BFF8BC08BC9E46704783
:0C09EC00F8B500BFF8BC08BC9E46704780
:0409F80000000020DB
:0809FC000109000831010008A7
:040A04000D010008D8
:100A080000000000EC02002054030020BC0300207A
:100A180000000000000000000000000000000000CE
:100A280000000000000000000000000000000000BE
:100A380000000000000000000000000000000000AE
:100A4800000000000000000000000000000000009E
:100A5800000000000000000000000000000000008E
:100A6800000000000000000000000000000000007E
:100A7800000000000000000000000000000000006E
:100A8800000000000000000000000000000000005E
:100A9800000000000000000000000000000000004E
:100AA800000000000000000001000000000000003D
:100AB8000E33CDAB34126DE6ECDE05000B00000002
:100AC800000000000000000000000000000000001E
:100AD800000000000000000000000000000000000E
:100AE80000000000000000000000000000000000FE
:100AF80000000000000000000000000000000000EE
:0C0E280000000000000000004804002052
:040000050800010CE2
:00000001FF
