:020000040800F2
:1000000000500020310400080D040008110400080D
:1000100015040008190400081D0400080000000071
:1000200000000000000000000000000021040008A3
:100030002504000800000000290400082D04000821
:10004000790400087904000879040008790400089C
:10005000790400087904000879040008790400088C
:10006000790400087904000879040008790400087C
:10007000790400087904000879040008790400086C
:10008000790400087904000879040008790400085C
:10009000790400087904000879040008790400084C
:1000A000790400087904000879040008790400083C
:1000B000790400087904000879040008790400082C
:1000C000790400087904000879040008790400081C
:1000D000790400087904000879040008790400080C
:1000E0007904000879040008790400080000000081
:1000F0000000000000000000000000000000000000
:0C01000000000000000000005FF808F1A3
:10010C0010B5054C237833B9044B13B10448AFF345
:10011C0000800123237010BD2C040020000000007F
:10012C00000A000808B5034B1BB103490348AFF3A1
:10013C00008008BD0000000030040020000A000808
:10014C0098B170B44FF0E022002605250424411E1E
:10015C0006485061966115611369DB03FCD50139C2
:10016C004B1C1461F5D170BC7047704740190100ED
:10017C004822802370B5204882B001A942F2127542
:10018C0006461E4C8DF80720ADF8043000F070F9CF
:10019C001DE0013D2ED000224FF48061204600F07E
:1001AC0001FB00220121204600F0FCFA0122022171
:1001BC00204600F0F7FA0120FFF7C2FF204601228B
:1001CC004FF4806100F0EEFA0120FFF7B9FF8021B7
:1001DC00304600F0E1FA02460028DAD14FF4806193
:1001EC00064800F0DFFA1023034801A98DF8073008
:1001FC0000F03EF902B070BD00080140000C014057
:10020C0030B5012183B0042000F0D4FA012108207C
:10021C0000F0D0FA41F20302FF23484D01A9284611
:10022C00ADF80620ADF8043000F022F940F243435B
:10023C00434C01A92046ADF8043000F019F9FFF742
:10024C0097FF20460022012100F0ACFA0022204644
:10025C00022100F0A7FA2846382100F0A9FA012261
:10026C004FF48061204600F09DFA0120FFF768FFF3
:10027C00204600224FF4806100F094FAFFF778FFDB
:10028C0020460022012100F08DFA00222046022196
:10029C0000F088FA28460C2100F08AFA01224FF46B
:1002AC008061204600F07EFA0120FFF749FF2046CE
:1002BC0000224FF4806100F075FAFFF759FF2046D9
:1002CC000022012100F06EFA00222046022100F0EB
:1002DC0069FA2846012100F06BFA01224FF4806183
:1002EC00204600F05FFA0120FFF72AFF204600228B
:1002FC004FF4806100F056FAFFF73AFF20460022D7
:10030C00012100F04FFA00222046022100F04AFAA7
:10031C002846062100F04CFA01224FF48061204659
:10032C0000F040FA0120FFF70BFF00224FF4806130
:10033C00204600F037FA03B030BD00BF0008014082
:10034C00000C0140F8B51646403000EB8110C4B2E9
:10035C00FFF70EFF00220121214800F023FA0022B2
:10036C0002211F4800F01EFA21461E4800F020FA18
:10037C0001224FF480611A4800F014FA0120FFF7B3
:10038C00DFFE00224FF48061154800F00BFA35783F
:10039C0025B3134C134FFFF7EBFE012220461146F9
:1003AC0000F000FA00220221204600F0FBF9294659
:1003BC00384600F0FDF901224FF48061204600F030
:1003CC00F1F90120FFF7BCFE00224FF480612046BA
:1003DC0000F0E8F916F8015F002DDCD1F8BD00BF84
:1003EC00000C01400008014008B5FFF709FF02218D
:1003FC000320024AFFF7A6FFFEE700BF180A000819
:10040C00704700BFFEE700BFFEE700BFFEE700BF7E
:10041C00FEE700BF704700BF704700BF704700BFCA
:10042C00704700BF00F0D2F90B480C490C4A00236E
:10043C0002E0D458C4500433C4188C42F9D3094A8E
:10044C00094C002301E013600432A242FBD300F0FC
:10045C003DFAFFF7C9FF7047000000202C04002074
:10046C00340A00082C0400204C040020FEE7000095
:10047C0000B591F803C01CF0100F18BF8B780CF06E
:10048C000F0E18BF4EEA030E0B88DAB2002A36D0D4
:10049C00BCF1480F026800F0B380BCF1280F00F0EB
:1004AC003A81D90744BF22F00F024EEA02029907A3
:1004BC0044BF22F0F00242EA0E12590744BF22F464
:1004CC00706242EA0E22190744BF22F4704242EADB
:1004DC000E32D90644BF22F4702242EA0E4299062B
:1004EC0044BF22F4700242EA0E52590644BF22F075
:1004FC00706242EA0E62190600F10A810260FF2B5B
:10050C004AD9BCF1480F426848D1D90506D54FF4F9
:10051C00807122F00F024EEA02020161990506D5A4
:10052C004FF4007122F0F00242EA0E1201615905FB
:10053C0006D54FF4806122F4706242EA0E2201610A
:10054C00190506D54FF4006122F4704242EA0E32CE
:10055C000161D90406D54FF4805122F4702242EA8D
:10056C000E420161990406D54FF4005122F4700239
:10057C0042EA0E520161590406D54FF4804122F033
:10058C00706242EA0E6201611B0404D54FF4004311
:10059C006EF31F72036142605DF804FBBCF1280F1F
:1005AC006ED0D90544BF22F00F024EEA0202990523
:1005BC0044BF22F0F00242EA0E12590544BF22F465
:1005CC00706242EA0E22190544BF22F4704242EADC
:1005DC000E32D90444BF22F4702242EA0E4299042E
:1005EC0044BF22F4700242EA0E52590444BF22F076
:1005FC00706242EA0E621B04CDD56EF31F72CAE71D
:10060C00D90705D5012122F00F024EEA0202016141
:10061C00990705D5022122F0F00242EA0E1201617F
:10062C00590705D5042122F4706242EA0E220161B9
:10063C00190705D5082122F4704242EA0E320161F5
:10064C00D90605D5102122F4702242EA0E4201612E
:10065C00990605D5202122F4700242EA0E5201615E
:10066C00590605D5402122F0706242EA0E62016102
:10067C0019067FF543AF80216EF31F7201613DE7D0
:10068C00D90506D54FF4807122F00F024EEA020212
:10069C004161990506D54FF4007122F0F00242EA4F
:1006AC000E124161590506D54FF4806122F4706237
:1006BC0042EA0E224161190506D54FF4006122F47D
:1006CC00704242EA0E324161D90406D54FF4805192
:1006DC0022F4702242EA0E424161990406D54FF48D
:1006EC00005122F4700242EA0E524161590406D5BF
:1006FC004FF4804122F0706242EA0E6241611B04A9
:10070C007FF549AF4FF400436EF31F72436142E72C
:10071C006EF31F72F2E6D90705D5012122F00F0204
:10072C004EEA02024161990705D5022122F0F0023E
:10073C0042EA0E124161590705D5042122F4706278
:10074C0042EA0E224161190705D5082122F47042B4
:10075C0042EA0E324161D90605D5102122F47022ED
:10076C0042EA0E424161990605D5202122F470021D
:10077C0042EA0E524161590605D5402122F07062C1
:10078C0042EA0E62416119067FF5B8AE80216EF324
:10079C001F724161B2E600BF8368194214BF012089
:1007AC00002070470AB1016170474161704700BF7A
:1007BC00C1607047044A936911B118439061704746
:1007CC0023EA0000906170470010024010B4002032
:1007DC004FF41F04394A3A4B116883B041F00101C0
:1007EC00116051680B405360136823F0847323F439
:1007FC0080331360136823F480231360536823F44D
:10080C00FE035360946000900190136843F48033AE
:10081C00136003E0009BB3F5A06F09D0136803F4D9
:10082C0000330193009B01330093019B002BF1D00B
:10083C00224B1B6813F4003318BF01230193019B57
:10084C00012B06D04FF000621E4B9A6003B010BC17
:10085C0070471D4A194B116841F010011160116865
:10086C0021F003011160116841F0020111605A6816
:10087C005A605A685A605A6842F480625A605A68E0
:10088C0022F47C125A605A6842F4E8125A601A68D0
:10089C0042F080721A601A689201FCD55968074AB6
:1008AC0021F003015960596841F002015960536805
:1008BC0003F00C03082BFAD1C4E700BF0010024070
:1008CC000000FFF800ED00E00020024070B50D4E76
:1008DC000D4D761BB61006D0002455F8043B0134A0
:1008EC009847A642F9D1094E094D00F083F8761BC2
:1008FC00B61006D0002455F8043B01349847A642A4
:10090C00F9D170BD280A0008280A0008300A00082E
:10091C00280A0008024B13B1024800F005B87047D2
:10092C000000000041090008002301461A46184641
:10093C0000F01AB838B5084B084D5B1B9C1007D05B
:10094C00043B1D44013C55F804399847002CF9D15F
:10095C00BDE8384000F054B8340A0008300A0008EA
:10096C00704700BF704700BF2DE9F047DFF87CA04F
:10097C000646DAF8000098460F469146FFF7F0FF5E
:10098C001B4B1B68D3F8484124B365681F2D26DC2C
:10099C005EB96B1C0235DAF80000636044F8257010
:1009AC00FFF7E0FF0020BDE8F087012304EB850191
:1009BC00C1F88890D4F88821AB401A43022EC4F8B1
:1009CC008821C1F80881E4D1D4F88C211343C4F8F0
:1009DC008C31DEE703F5A674C3F84841D5E7DAF8A5
:1009EC000000FFF7BFFF4FF0FF30DCE728040020CA
:1009FC00240A0008F8B500BFF8BC08BC9E46704736
:0C0A0C00F8B500BFF8BC08BC9E4670475F
:100A180048656C6C6F20576F726C64000000002092
:080A280021090008310100085A
:040A30000D010008AC
:100A340000000000EC02002054030020BC0300204E
:100A440000000000000000000000000000000000A2
:100A54000000000000000000000000000000000092
:100A64000000000000000000000000000000000082
:100A74000000000000000000000000000000000072
:100A84000000000000000000000000000000000062
:100A94000000000000000000000000000000000052
:100AA4000000000000000000000000000000000042
:100AB4000000000000000000000000000000000032
:100AC4000000000000000000000000000000000022
:100AD4000000000000000000010000000000000011
:100AE4000E33CDAB34126DE6ECDE05000B000000D6
:100AF40000000000000000000000000000000000F2
:100B040000000000000000000000000000000000E1
:100B140000000000000000000000000000000000D1
:100B240000000000000000000000000000000000C1
:0C0E540000000000000000004804002026
:040000050800010CE2
:00000001FF
