:020000040800F2
:100000000050002001190008DD180008E118000860
:10001000E5180008E9180008ED18000800000000C5
:10002000000000000000000000000000F1180008BF
:10003000F518000800000000F9180008FD18000875
:100040004919000849190008491900084919000808
:1000500049190008491900084919000865180008DD
:1000600049190008491900084919000849190008E8
:1000700049190008491900084919000849190008D8
:1000800049190008491900084919000849190008C8
:1000900049190008491900084919000849190008B8
:1000A00049190008491900084919000849190008A8
:1000B000791700084D170008491900084919000868
:1000C0004919000849190008491900084919000888
:1000D0004919000849190008491900084919000878
:1000E00049190008491900084919000800000000D2
:1000F0000000000000000000000000000000000000
:0C01000000000000000000005FF808F1A3
:1001100081F0004102E000BF83F0004330B54FEAB8
:1001200041044FEA430594EA050F08BF90EA020F25
:100130001FBF54EA000C55EA020C7FEA645C7FEAB8
:10014000655C00F0E2804FEA5454D4EB5555B8BFDB
:100150006D420CDD2C4480EA020281EA030382EA4C
:10016000000083EA010180EA020281EA0303362DDE
:1001700088BF30BD11F0004F4FEA01314FF4801CB1
:100180004CEA113102D0404261EB410113F0004FC3
:100190004FEA03334CEA133302D0524263EB43037A
:1001A00094EA050F00F0A780A4F10104D5F1200E18
:1001B0000DDB02FA0EFC22FA05F2801841F1000173
:1001C00003FA0EF2801843FA05F359410EE0A5F147
:1001D00020050EF1200E012A03FA0EFC28BF4CF078
:1001E000020C43FA05F3C01851EBE37101F000452E
:1001F00007D54FF0000EDCF1000C7EEB00006EEB3B
:100200000101B1F5801F1BD3B1F5001F0CD34908C4
:100210005FEA30004FEA3C0C04F101044FEA44521B
:1002200012F5800F80F09A80BCF1004F08BF5FEAA2
:10023000500C50F1000041EB045141EA050130BD82
:100240005FEA4C0C404141EB0101013C28BFB1F594
:10025000801FE9D291F0000F04BF01460020B1FADF
:1002600081F308BF2033A3F10B03B3F120020CDAB2
:100270000C3208DD02F1140CC2F10C0201FA0CF090
:1002800021FA02F10CE002F11402D8BFC2F1200CF5
:1002900001FA02F120FA0CFCDCBF41EA0C019040AB
:1002A000E41AA2BF01EB0451294330BD6FEA0404F4
:1002B0001F3C1CDA0C340EDC04F11404C4F12002DF
:1002C00020FA04F001FA02F340EA030021FA04F3F1
:1002D00045EA030130BDC4F10C04C4F1200220FA48
:1002E00002F001FA04F340EA0300294630BD21FA86
:1002F00004F0294630BD94F0000F83F4801306BF4C
:1003000081F480110134013D4EE77FEA645C18BF3F
:100310007FEA655C29D094EA050F08BF90EA020FD6
:1003200005D054EA000C04BF1946104630BD91EACE
:10033000030F1EBF0021002030BD5FEA545C05D1D1
:100340004000494128BF41F0004130BD14F5800410
:100350003CBF01F5801130BD01F0004545F0FE4184
:1003600041F470014FF0000030BD7FEA645C1ABFB9
:10037000194610467FEA655C1CBF0B46024650EAF0
:10038000013406BF52EA033591EA030F41F400211C
:1003900030BD00BF90F0000F04BF0021704730B5A2
:1003A0004FF4806404F132044FF000054FF0000177
:1003B00050E700BF90F0000F04BF0021704730B538
:1003C0004FF4806404F1320410F0004548BF40420D
:1003D0004FF000013EE700BF42004FEAE2014FEA62
:1003E00031014FEA02701FBF12F07F4393F07F4F3D
:1003F00081F06051704732F07F4208BF704793F040
:100400007F4F04BF41F40021704730B54FF4607452
:1004100001F0004521F000411CE700BF50EA010255
:1004200008BF704730B54FF000050AE050EA0102FE
:1004300008BF704730B511F0004502D5404261EB6E
:1004400041014FF4806404F132045FEA915C3FF4AF
:10045000D8AE4FF003025FEADC0C18BF03325FEA4C
:10046000DC0C18BF033202EBDC02C2F1200300FAFD
:1004700003FC20FA02F001FA03FE40EA0E0021FA22
:1004800002F11444BDE600BF4FEA4102B2F1E0437D
:1004900024BFB3F5001CDCF1FE5C0DD901F0004C6B
:1004A0004FEAC0024CEA5070B2F1004F40EB8300BB
:1004B00008BF20F00100704711F0804F21D113F1E7
:1004C0003872BCBF01F00040704741F480114FEA20
:1004D0005252C2F11802C2F1200C10FA0CF320FAA9
:1004E00002F018BF40F001004FEAC1234FEAD323C6
:1004F00003FA0CFC40EA0C0023FA02F34FEA430330
:10050000CCE77FEA625307D150EA01331EBF4FF0B8
:10051000FE4040F44000704701F0004040F0FE40D3
:1005200040F40000704700BF80F0004002E000BFD0
:1005300081F0004142001FBF5FEA410392EA030FCE
:100540007FEA226C7FEA236C6AD04FEA1262D2EB18
:100550001363C1BFD218414048404140B8BF5B421D
:10056000192B88BF704710F0004F40F4000020F0B6
:100570007F4018BF404211F0004F41F4000121F0CC
:100580007F4118BF494292EA030F3FD0A2F1010216
:1005900041FA03FC10EB0C00C3F1200301FA03F154
:1005A00000F0004302D5494260EB4000B0F5000F77
:1005B00013D3B0F1807F06D340084FEA310102F136
:1005C0000102FE2A51D2B1F1004F40EBC25008BFE8
:1005D00020F0010040EA03007047490040EB0000B2
:1005E000013A28BFB0F5000FEDD2B0FA80FCACF1B3
:1005F000080CB2EB0C0200FA0CF0AABF00EBC250E0
:1006000052421843BCBFD0401843704792F0000FCD
:1006100081F4000106BF80F400000132013BB5E720
:100620004FEA41037FEA226C18BF7FEA236C21D096
:1006300092EA030F04D092F0000F08BF08467047FB
:1006400090EA010F1CBF0020704712F07F4F04D1C9
:10065000400028BF40F00040704712F100723CBFDC
:1006600000F50000704700F0004343F0FE4040F406
:10067000000070477FEA226216BF08467FEA2363C4
:100680000146420206BF5FEA412390EA010F40F4AF
:10069000800070474FF0000304E000BF10F00043FB
:1006A00048BF40425FEA000C08BF704743F09643E2
:1006B00001464FF000001CE050EA010208BF7047FD
:1006C0004FF000030AE000BF50EA010208BF704784
:1006D00011F0004302D5404261EB41015FEA010C99
:1006E00002BF84460146002043F0B64308BFA3F191
:1006F0008053A3F50003BCFA8CF2083AA3EBC25373
:1007000010DB01FA02FC634400FA02FCC2F1200291
:10071000BCF1004F20FA02F243EB020008BF20F0C8
:100720000100704702F1200201FA02FCC2F120022E
:1007300050EA4C0021FA02F243EB020008BF20EA23
:10074000DC7070474FF0FF0C1CEAD0521EBF1CEA51
:10075000D15392EA0C0F93EA0C0F6FD01A4480EA3F
:10076000010C400218BF5FEA41211ED04FF0006328
:1007700043EA501043EA5111A0FB01310CF0004054
:10078000B1F5000F3EBF490041EAD3715B0040EA7A
:10079000010062F17F02FD2A1DD8B3F1004F40EB4A
:1007A000C25008BF20F00100704790F0000F0CF01D
:1007B000004C08BF49024CEA502040EA51207F3AE1
:1007C000C2BFD2F1FF0340EAC250704740F40000BC
:1007D0004FF00003013A5DDC12F1190FDCBF00F0AD
:1007E00000407047C2F10002410021FA02F1C2F15B
:1007F000200200FA02FC5FEA310040F1000053EAF7
:100800004C0308BF20EADC70704792F0000F00F044
:10081000004C02BF400010F4000F013AF9D040EA4A
:100820000C0093F0000F01F0004C02BF490011F4DE
:10083000000F013BF9D041EA0C018FE70CEAD153DC
:1008400092EA0C0F18BF93EA0C0F0AD030F0004C5C
:1008500018BF31F0004CD8D180EA010000F0004010
:10086000704790F0000F17BF90F0004F084691F0CE
:10087000000F91F0004F14D092EA0C0F01D1420208
:100880000FD193EA0C0F03D14B0218BF084608D1D1
:1008900080EA010000F0004040F0FE4040F400001B
:1008A000704740F0FE4040F4400070474FF0FF0CAE
:1008B0001CEAD0521EBF1CEAD15392EA0C0F93EAF5
:1008C0000C0F69D0A2EB030280EA010C49024FEA47
:1008D000402037D04FF0805343EA111143EA101300
:1008E0000CF000408B4238BF5B0042F17D024FF4B8
:1008F000000C8B4224BF5B1A40EA0C00B3EB510F93
:1009000024BFA3EB510340EA5C00B3EB910F24BF7B
:10091000A3EB910340EA9C00B3EBD10F24BFA3EB00
:10092000D10340EADC001B0118BF5FEA1C1CE0D1C8
:10093000FD2A3FF650AF8B4240EBC25008BF20F07B
:10094000010070470CF0004C4CEA50207F32C2BFCF
:10095000D2F1FF0340EAC250704740F400004FF06C
:100960000003013A37E792F0000F00F0004C02BF9D
:10097000400010F4000F013AF9D040EA0C0093F067
:10098000000F01F0004C02BF490011F4000F013BC1
:10099000F9D041EA0C0195E70CEAD15392EA0C0F29
:1009A00008D142027FF47DAF93EA0C0F7FF470AF61
:1009B000084676E793EA0C0F04D14B023FF44CAFA4
:1009C00008466EE730F0004C18BF31F0004CCAD139
:1009D00030F000427FF45CAF31F000437FF43CAF75
:1009E0005FE700BF4FF0FF3C06E000BF4FF0010C97
:1009F00002E000BF4FF0010C4DF804CD4FEA400279
:100A00004FEA41037FEA226C18BF7FEA236C11D0C2
:100A100001B052EA530C18BF90EA010F58BFB2EB75
:100A2000030088BFC81738BF6FEAE17018BF40F0F5
:100A3000010070477FEA226C02D15FEA402C05D1A9
:100A40007FEA236CE4D15FEA412CE1D05DF8040B2E
:100A5000704700BF844608466146FFE70FB5FFF7C1
:100A6000C9FF002848BF10F1000F0FBD4DF808ED79
:100A7000FFF7F4FF0CBF012000205DF808FB00BF6A
:100A80004DF808EDFFF7EAFF34BF012000205DF8C4
:100A900008FB00BF4DF808EDFFF7E0FF94BF012011
:100AA00000205DF808FB00BF4DF808EDFFF7D2FF0E
:100AB00094BF012000205DF808FB00BF4DF808ED51
:100AC000FFF7C8FF34BF012000205DF808FB00BF1E
:100AD00042000ED2B2F1FE4F0BD34FF09E03B3EBA8
:100AE000126209D44FEA002343F0004323FA02F0D4
:100AF00070474FF00000704712F1610F01D14202C0
:100B000002D14FF0FF3070474FF00000704700BF38
:100B100070B54FF0FF0C4CF4E06C1CEA11541DBF93
:100B20001CEA135594EA0C0F95EA0C0F00F0DEF85E
:100B30002C4481EA030621EA4C5123EA4C5350EA43
:100B4000013518BF52EA033541F4801143F4801394
:100B500038D0A0FB02CE4FF00005E1FB02E506F025
:100B60000042E0FB03E54FF00006E1FB03569CF07A
:100B7000000F18BF4EF0010EA4F1FF04B6F5007F80
:100B800064F5407404D25FEA4E0E6D4146EB0606F2
:100B900042EAC62141EA55514FEAC52040EA5E507B
:100BA0004FEACE2EB4F1FD0C88BFBCF5E06F1ED825
:100BB000BEF1004F08BF5FEA500E50F1000041EB5C
:100BC000045170BD06F0004646EA010140EA020009
:100BD00081EA0301B4EB5C04C2BFD4EB0C0541EA2B
:100BE000045170BD41F480114FF0000E013C00F340
:100BF000AB8014F1360FDEBF002001F0004170BD64
:100C0000C4F10004203C35DA0C341BDC04F114047C
:100C1000C4F1200500FA05F320FA04F001FA05F208
:100C200040EA020001F0004221F0004110EBD370D5
:100C300021FA04F642EB06015EEA430E08BF20EA01
:100C4000D37070BDC4F10C04C4F1200500FA04F3A4
:100C500020FA05F001FA04F240EA020001F0004136
:100C600010EBD37041F100015EEA430E08BF20EAA9
:100C7000D37070BDC4F1200500FA05F24EEA020EF1
:100C800020FA04F301FA05F243EA020321FA04F020
:100C900001F0004121FA04F220EA020000EBD370D7
:100CA0005EEA430E08BF20EAD37070BD94F0000FD7
:100CB0000FD101F00046400041EB010111F4801F0B
:100CC00008BF013CF7D041EA060195F0000F18BFBC
:100CD000704703F00046520043EB030313F4801FF8
:100CE00008BF013DF7D043EA0603704794EA0C0FB2
:100CF0000CEA135518BF95EA0C0F0CD050EA4106C8
:100D000018BF52EA4306D1D181EA030101F0004144
:100D10004FF0000070BD50EA410606BF104619466C
:100D200052EA430619D094EA0C0F02D150EA013678
:100D300013D195EA0C0F05D152EA03361CBF1046B9
:100D400019460AD181EA030101F0004141F0FE4158
:100D500041F470014FF0000070BD41F0FE4141F4DC
:100D6000780170BD70B54FF0FF0C4CF4E06C1CEADC
:100D700011541DBF1CEA135594EA0C0F95EA0C0F91
:100D800000F0A7F8A4EB050481EA030E52EA03354C
:100D90004FEA013100F088804FEA03334FF080556D
:100DA00045EA131343EA12634FEA022245EA11159A
:100DB00045EA10654FEA00260EF000419D4208BF4B
:100DC000964244F1FD0404F5407402D25B084FEAF8
:100DD0003202B61A65EB03055B084FEA32024FF4A4
:100DE00080104FF4002CB6EB020E75EB030E22BF01
:100DF000B61A754640EA0C005B084FEA3202B6EBC1
:100E0000020E75EB030E22BFB61A754640EA5C006F
:100E10005B084FEA3202B6EB020E75EB030E22BFFF
:100E2000B61A754640EA9C005B084FEA3202B6EB00
:100E3000020E75EB030E22BFB61A754640EADC00BF
:100E400055EA060E18D04FEA051545EA16754FEA21
:100E500006164FEAC30343EA52734FEAC2025FEA3F
:100E60001C1CC0D111F4801F0BD141EA00014FF0CE
:100E700000004FF0004CB6E711F4801F04BF01439F
:100E80000020B4F1FD0C88BFBCF5E06F3FF6AFAEBB
:100E9000B5EB030C04BFB6EB020C5FEA500C50F14B
:100EA000000041EB045170BD0EF0004E4EEA1131CE
:100EB00014EB5C04C2BFD4EB0C0541EA045170BDD5
:100EC00041F480114FF0000E013C90E645EA060E19
:100ED0008DE60CEA135594EA0C0F08BF95EA0C0F47
:100EE0003FF43BAF94EA0C0F0AD150EA01347FF48F
:100EF00034AF95EA0C0F7FF425AF104619462CE766
:100F000095EA0C0F06D152EA03353FF4FDAE1046C8
:100F1000194622E750EA410618BF52EA43067FF419
:100F2000C5AE50EA41047FF40DAF52EA43057FF4A9
:100F3000EBAE12E74FF0FF3C06E000BF4FF0010CB4
:100F400002E000BF4FF0010C4DF804CD4FEA410C18
:100F50007FEA6C5C4FEA430C18BF7FEA6C5C1BD0E5
:100F600001B050EA410C0CBF52EA430C91EA030F66
:100F700002BF90EA020F0020704710F1000F91EAC3
:100F8000030F58BF994208BF90422CBFD8176FEA91
:100F9000E37040F0010070474FEA410C7FEA6C5C5F
:100FA00002D150EA013C07D14FEA430C7FEA6C5C66
:100FB000D6D152EA033CD3D05DF8040B704700BF92
:100FC0008446104662468C461946634600E000BFE0
:100FD00001B5FFF7B7FF002848BF10F1000F01BDB2
:100FE0004DF808EDFFF7F4FF0CBF012000205DF87D
:100FF00008FB00BF4DF808EDFFF7EAFF34BF012002
:1010000000205DF808FB00BF4DF808EDFFF7E0FF9A
:1010100094BF012000205DF808FB00BF4DF808EDEB
:10102000FFF7CEFF94BF012000205DF808FB00BF52
:101030004DF808EDFFF7C4FF34BF012000205DF834
:1010400008FB00BF4FEA410C7FEA6C5C02D150EA1A
:10105000013C0AD14FEA430C7FEA6C5C02D152EAB0
:10106000033C02D14FF0000070474FF00100704781
:101070000348044B834202D0034B03B11847704727
:101080004001002040010020000000000548064B00
:101090001B1AD90F01EBA301491002D0034B03B176
:1010A0001847704740010020400100200000000068
:1010B00010B5064C237843B9FFF7DAFF044B13B1A0
:1010C0000448AFF300800123237010BD40010020CD
:1010D00000000000B423000808B5054B1BB105490A
:1010E0000548AFF30080BDE80840FFF7CFBF00BF61
:1010F0000000000044010020B423000810B5094C92
:1011000000222046042100F055FE20460022102136
:1011100000F050FE2046BDE810400022082100F0FB
:1011200049BE00BF0008014010B5064C20212046F2
:1011300000F03EFE00BF00BF20212046BDE8104069
:1011400000F034BE0008014038B5082504460022EE
:101150000421124800F02EFE04F0800208210F48FE
:1011600000F028FE012204210C4800F023FE00229A
:1011700004210A4800F01EFE6400013DE4B2E6D1FD
:1011800001221021054800F015FE00BF00BF10210C
:101190002A46BDE83840014800F00CBE0008014076
:1011A0000122014B1A707047360200202DE9F84FDA
:1011B00088460646FFF78CFC84B22046FFF76EFA9D
:1011C00001463046FFF7B4F94D49FFF7BBFAFFF788
:1011D0007FFC05464B493046ADB2FFF751FC10B3DA
:1011E0006423002004264849484FA1FB05214909F2
:1011F00003FB1153A7FB05C29BB2A7FB0373D208E5
:1012000002EB8202A5EB4202DB0862F3070063F304
:101210000F2061F317403E4B64F31F60C8F80000D5
:101220001E70BDE8F88F394B07463A493046A3FB9C
:10123000042BFFF725FC4FEADB0B0BEB8B09A4EB30
:1012400049098246314B5FFA89F9C8B1642203200B
:101250002D49A1FB0541490902FB115292B2A3FBA2
:101260000223C34063F3070761F30F27284B69F399
:1012700017476BF31F67C8F800701870BDE8F88F48
:101280004FF0640B204F3046A7FB042676090BFB7A
:10129000164B1FFA8BFBA3FB0B3B1949CBF3C70B78
:1012A000FFF7EEFB88B10222A7FB05756D0965F318
:1012B000070A69F30F2A164B6BF3174A66F31F6A86
:1012C000C8F800A01A70BDE8F88F134A69F3070048
:1012D000A2FB04324FF47A73920903FB12430124F8
:1012E0009BB2A7FB03736BF30F205B09084963F301
:1012F000174062F31F60C8F800000C70BDE8F88F5B
:1013000000007A44000020411F85EB51CDCCCCCCAD
:10131000370200200000C842D34D62102DE9F04F83
:10132000178883B00446781ECDE900139346FFF773
:10133000B5F9DDF830900146DDF83480D9F800A029
:10134000002F6ED00026054654F826004146FFF7D0
:10135000EFF80146FFF7F6F901465046FFF7EAF8C5
:101360000136F6B2BE428246C9F80000ECD32946E7
:10137000FFF79CFAFFF730F800F006FFFFF784F85C
:101380002F49C9F80000FFF7DDF941468246FFF713
:10139000D1F85146814640460025FFF7C9F82E4650
:1013A000CDF834808246A84654F82850494628464D
:1013B000FFF784FB40B951462846FFF761FB721CDA
:1013C00010B944F8265096B208F101035FFA83F889
:1013D000B845E9D3BE42DDF8348015D06EB34FF086
:1013E00000080027404654F827100137FFB2FFF7E6
:1013F000A1F8B742F7D380463046FFF74FF90146D0
:101400004046FFF753FA804640460199FFF7CEFE6B
:1014100000220023ABF80020009A136003B0BDE85F
:10142000F08F5046FFF742FAFEF7D6FF00F0ACFE11
:10143000FFF72AF8C9F80000E6E74FF00008DBE7FD
:1014400000004040000000002DE9F04F504D85B0F5
:101450002A783AB14F4E04463378002B44D14E4B94
:101460001B7813B905B0BDE8F08F4C4FDFF8309111
:10147000384600F05BFD00234FF47A72BB84494B81
:10148000DFF824811B88494F9BB202FB0300FEF763
:1014900091FF3DA3D3E90023FFF73AFBFEF7F4FFEA
:1014A000434BB9F800B0D8F8001043F82B0082463F
:1014B000FFF740F802463968C8F80020504603920A
:1014C000FFF738F80BF101039BB20A2B039AA9F836
:1014D000003038601AD0322B41D0002201232A700C
:1014E000337005B0BDE8F08F0121324800F05EFC9A
:1014F0000F2000F065F901212E4800F059FC00236F
:101500003370254B1B78002BACD0AEE72A49FFF790
:1015100019F92A4B04462A491868FFF713F9294B91
:101520008046D3F800904946FFF704F8014620466C
:10153000FFF7C4FA28B10A22234B1A8000233B602C
:10154000CBE741464846FEF7F3FF01462046FFF74A
:1015500097FA0028EFD132221B4B1A80EEE7104693
:101560001A49FFF7EFF807462346DFF858C0134C37
:101570004A4600944146CCF800700D480197FFF7A9
:10158000CDFEAAE7AFF30080967B1A61B9A7913F21
:101590003E020020360200203F02002000040040EE
:1015A000340200203802002068010020640100207D
:1015B0006C01002000080140CDCCCC3D6001002032
:1015C000000040405C0100203C0200200AD7A33C00
:1015D0002DE9F0410446284D4778284EFFF7A4FD39
:1015E0002B78F05D022B08BF00F07F00FFF7ACFD09
:1015F0001C20FFF7A9FD4FF47A7000F0E1F8204FAE
:1016000094F80280FFF790FD2B7817F80800032B61
:1016100008BF40F08000FFF797FD1020FFF794FD12
:101620004FF47A7000F0CCF894F80380FFF77CFD5B
:101630002B7817F80800042B08BF40F08000FFF754
:1016400083FD0820FFF780FD4FF47A7000F0B8F8B2
:101650002478FFF769FD2B78305D012B08BF00F07F
:101660007F00FFF771FD1A20FFF76EFDBDE8F04126
:101670004FF47A7000F0A4B837020020DC23000891
:10168000CC230008F0B50025472740F2E7362B4C65
:1016900085B00121022000F0B5FB204600F03EFCA1
:1016A000204601A9CDE901768DF80C5000F0B6FB7B
:1016B0002046012100F03EFC01222046114600F0A8
:1016C00023FC4FF4A06000F041F91D4B68460093E5
:1016D00000F046F92946204600F008FC01210846A2
:1016E00000F090FB4FF0804000F018FC01A94FF093
:1016F0008040019702968DF80C5000F08FFB01217D
:101700004FF0804000F016FC01224FF0804011465F
:1017100000F0FAFB4FF4A06000F018F9094B68469E
:10172000009300F01DF901214FF0804000F0DEFB36
:101730000A22054B1A8005B0F0BD00BF000400402E
:101740001D0301011C0302013C02002008B5012118
:10175000074800F0F3FB00B908BD0121044800F080
:10176000F9FB044A138801339BB2138008BD00BF04
:10177000000400403802002008B501214FF08040ED
:1017800000F0DCFB00B908BD01214FF0804000F003
:10179000E1FB0849084A0B88128801339BB292B2D8
:1017A00093420B80EFD301200023044A0B8010707A
:1017B00008BD00BF3A0200203C0200203E0200208B
:1017C0004FF0E0220021052300EBC000C000506173
:1017D000916113611369DB03FCD504231361704726
:1017E00030B5012185B01C4D042000F0FFFA1B4BE1
:1017F000694628460224009300F02CF92823694604
:1018000028468DF80330ADF8004000F023F9284653
:10181000202100F0CBFA0121084600F0E7FA01216F
:10182000002000F0CDFA01224FF4805302A88DF879
:101830000E20ADF80C30029400F0C0F8204600F005
:1018400003F94FF4A06000F081F8054B01A8019363
:1018500000F086F805B030BD000801403D000310DF
:1018600007020101022010B500F0E0F8012800D0C5
:1018700010BD044602210C4800F092FA01280AD05B
:1018800000210A4800F032FB094B1C700220BDE821
:10189000104000F0D9B80022064B014603481A80D8
:1018A00000F024FBF2E700BF000801400004004004
:1018B0003F0200203802002000B583B0FFF790FF00
:1018C000FFF71CFCFFF7DEFEFFF76AFC6846FFF738
:1018D000BBFD6846FFF77CFEF8E700BF704700BF1E
:1018E000FEE700BFFEE700BFFEE700BFFEE700BF68
:1018F000704700BF704700BF704700BF704700BF10
:1019000000F02CFB0B480C490C4A002302E0D45891
:10191000C4500433C4188C42F9D3094A094C00233B
:1019200001E013600432A242FBD300F097FBFFF703
:10193000C3FF70470000002040010020F82300088A
:101940004001002010050020FEE70000034B40F09E
:10195000BF6040F40030D860704700BF00ED00E089
:1019600030B501240178C37801F01F024FEA511C01
:101970009440C3B10F4B0F25DA6890F801E0D243D1
:101980008378C2F30222D540C2F104022B400EFA42
:1019900002F2094813431B010144DBB281F8003312
:1019A00040F82C4030BD044B0CF1200C43F82C4087
:1019B00030BD00BF00ED00E000E100E0037930B48D
:1019C0008279046803F18043E14303F58233F2B185
:1019D000154A15680D401560556829405160196811
:1019E000214319609168036821EA03019160D1687D
:1019F00021EA0301D160417910290DD030BC01F1F9
:101A0000804202F5823211680B43136070471A68F6
:101A100030BC0A401A607047916830BC194391602D
:101A2000D1680B43D360704700040140054B1A682E
:101A30005B69034004D0024214BF012000207047BC
:101A40001846704700040140014B5861704700BFC1
:101A50000004014000B591F803C01CF0100F18BF3E
:101A60008B780CF00F0E18BF4EEA030E0B88DAB21B
:101A7000002A6AD0BCF1480F026800F08780BCF1F0
:101A8000280F00F0FE80D90744BF22F00F024EEA73
:101A90000202990744BF22F0F00242EA0E125907EF
:101AA00044BF22F4706242EA0E22190744BF22F4B6
:101AB000704242EA0E32D90644BF22F4702242EA52
:101AC0000E42990644BF22F4700242EA0E525906B1
:101AD00044BF22F0706242EA0E62190648BF6EF3FC
:101AE0001F72FF2B02602ED94268D90544BF22F035
:101AF0000F024EEA0202990544BF22F0F00242EAC8
:101B00000E12590544BF22F4706242EA0E221905F2
:101B100044BF22F4704242EA0E32D90444BF22F498
:101B2000702242EA0E42990444BF22F4700242EA53
:101B30000E52590444BF22F0706242EA0E621B0446
:101B400000F12A8142605DF804FBFF2BFBD9BCF158
:101B5000280F426800F0D880BCF1480FC5D1D905E4
:101B600057D4990500F1858059057AD4190570D4A8
:101B7000D90466D499045CD4590452D41B04E1D529
:101B80004FF400436EF31F720361DBE7D90705D5FD
:101B9000012122F00F024EEA02020161990705D5E8
:101BA000022122F0F00242EA0E120161590705D526
:101BB000042122F4706242EA0E220161190705D560
:101BC000082122F4704242EA0E320161D90605D59D
:101BD000102122F4702242EA0E420161990605D5D5
:101BE000202122F4700242EA0E520161590605D505
:101BF000402122F0706242EA0E620161190603D5AB
:101C000080216EF31F720161FF2B02609BD9426835
:101C1000A5E74FF4807122F00F024EEA0202016143
:101C20009FE74FF4804122F0706242EA0E62016148
:101C3000A4E74FF4005122F4700242EA0E5201610F
:101C40009AE74FF4805122F4702242EA0E42016179
:101C500090E74FF4006122F4704242EA0E320161D3
:101C600086E74FF4806122F4706242EA0E2201613D
:101C70007CE74FF4007122F0F00242EA0E1201619B
:101C800072E7D90705D5012122F00F024EEA0202C0
:101C90004161990705D5022122F0F00242EA0E12B5
:101CA0004161590705D5042122F4706242EA0E22EF
:101CB0004161190705D5082122F4704242EA0E322B
:101CC0004161D90605D5102122F4702242EA0E4264
:101CD0004161990605D5202122F4700242EA0E5294
:101CE0004161590605D5402122F0706242EA0E6238
:101CF0004161190603D580216EF31F724161FF2BEC
:101D000002607FF620AF4268D90506D54FF4807196
:101D100022F00F024EEA02024161990506D54FF406
:101D2000007122F0F00242EA0E124161590506D517
:101D30004FF4806122F4706242EA0E22416119057B
:101D400006D54FF4006122F4704242EA0E3241613E
:101D5000D90406D54FF4805122F4702242EA0E4293
:101D60004161990406D54FF4005122F4700242EA11
:101D70000E524161590406D54FF4804122F0706241
:101D800042EA0E6241611B047FF5DCAE4FF4004372
:101D90006EF31F724361D5E66EF31F72D2E600BF89
:101DA0008368194214BF0120002070470161704709
:101DB000416170470AB1016170474161704700BFDE
:101DC0004FF00F0C01F0FC0303F1804303F5803367
:101DD00001F003019A6889000CFA01FC22EA0C0266
:101DE0009A609A688840104398607047044A9369E3
:101DF00011B103439361704723EA00039361704775
:101E000000100240044AD36911B10343D361704703
:101E100023EA0003D36170470010024010B42D4C38
:101E20000388A0420A88B1F804C09BB21CD02A4C97
:101E3000A04219D0B0F1804F28D0A4F59834A04228
:101E400024D004F58064A04220D004F58064A04230
:101E50001CD0224CA0422DD103800123A0F82CC01D
:101E600010BC0285838270474C8823F070032343A3
:101E7000CC8823F4407323430380A0F82CC0028550
:101E80000B7A0386012310BC838270474C8823F0B1
:101E900070032343CC8823F4407323430380A0F8CA
:101EA0002CC002850E4B9842EAD003F5806398421D
:101EB000E6D0E7E70B4CA042CED0CC8823F44073A9
:101EC00023430380084BA0F82CC098420285D7D04A
:101ED000E8E700BF002C0140003401400010004042
:101EE000004401400014004000400140038821B13B
:101EF0009BB243F001030380704723F001031B04EE
:101F00001B0C0380704700BF83899BB212B10B4347
:101F10008381704723EA010383817047038923F09B
:101F200007031B041B0C0381704700BF808C80B229
:101F3000704700BFC94389B201827047038A828912
:101F400011EA030092B203D00A4214BF012000201C
:101F5000704700BFC94389B20182704710B40020A6
:101F60004FF41F04394A3A4B116883B041F0010124
:101F7000116051680B405360136823F0847323F49D
:101F800080331360136823F480231360536823F4B1
:101F9000FE035360946000900190136843F4803313
:101FA000136003E0009BB3F5A06F09D0136803F43E
:101FB00000330193009B01330093019B002BF1D070
:101FC000224B1B6813F4003318BF01230193019BBC
:101FD000012B06D04FF000621E4B9A6003B010BC7C
:101FE00070471D4A194B116841F0100111601168CA
:101FF00021F003011160116841F0020111605A687B
:102000005A605A685A605A6842F480625A605A6844
:1020100022F47C125A605A6842F4E8125A601A6834
:1020200042F080721A601A689201FCD55968074A1A
:1020300021F003015960596841F002015960536869
:1020400003F00C03082BFAD1C4E700BF00100240D4
:102050000000FFF800ED00E00020024070B50F4BDB
:102060000F4DAB42A3EB050607D00024B61055F880
:10207000043B01349847A642F9D800F09BF9094D7A
:10208000094B5E1BAB424FEAA60606D0002455F86A
:10209000043B01349847A642F9D870BDEC230008F0
:1020A000EC230008EC230008F4230008704700BF6D
:1020B000704700BF024B13B1024800F005B87047EB
:1020C00000000000D5200008002301461A461846EB
:1020D00000F014B838B5074D074C2C1BA41005D0E0
:1020E000013C55F8043D9847002CF9D1BDE8384033
:1020F00000F066B9F8230008F42300082DE9F8433E
:102100001B4D0646286898460F469146FFF7CEFFBE
:10211000184B1C681CB3286865681F2D22DC4EB95B
:102120006B1C0235636044F82570FFF7C1FF002087
:10213000BDE8F883012304EB8501C1F88890D4F849
:102140008821AB401A43022EC4F88821C1F80881C7
:10215000E6D1D4F88C211A43C4F88C21E0E7064C70
:102160001C60D8E7FFF7A4FF4FF0FF30E0E700BFA7
:10217000280100207C03002080030020014B186808
:10218000704700BF00000020F8B504460D4600F07F
:1021900023F8224606460F462B4620462946FEF7E0
:1021A00051FF30B92046294600220023FEF722FFC6
:1021B00010B930463946F8BDFFF7E0FF0022002392
:1021C0002121016010461946FEF7CCFD06460F4658
:1021D00030463946F8BD00BF2DE9F84F724F04462E
:1021E0008F430D4600F0B28000290B46064602469A
:1021F00055DD081500F09B80C3F31303C107A0F25F
:10220000FF3743F4801303D4D10F01EB4303520093
:10221000002616244FF40011B4465B0003EBD27382
:102220007F1052000CEB0100984203DC1B1A01EBFB
:10223000000C0E445B00013C03EBD2734FEA5101EA
:102240004FEA4202EED120254FF00040A0460AE0BE
:1022500039D0590001EBD271013D0B464FEA4202E1
:102260004FEA50003BD09C4508EB000EF0DABEF17F
:10227000000F0EEB00080CDBE146A3EB0C01CC4693
:10228000964588BF01F1FF314900A2EB0E020444DC
:10229000E0E7B8F1000FEFDB0CF10109EDE721F009
:1022A000004707433DD0002973D1D10A153B5205A1
:1022B0000029FAD0CD02184616460B4637D5202401
:1022C0004FF0FF313EE0964502D94FEA4C01C1E79D
:1022D000BEF1000F0EEB000825DB0021D5E711430E
:1022E00012D0DFF8C8A0DFF8C8B0DAE90001DBE9F6
:1022F0000023FDF711FFDAE9008902460B4640464C
:102300004946FEF781FE58BB6508F20748BF45F015
:1023100000452846731003F17F5303F5001303EBC8
:102320000751BDE8F88FB8F1000FB5DAD5E7002204
:102330005B00DC02114602F10102F9D5C2F1200472
:1023400006FA02F2E640401A334355E702460B46CE
:10235000FEF7DEFB22462B46FDF7E0FEBDE8F88FD8
:10236000B4F1FF3FDAE90001DBE9002318D0DAE934
:102370000089FDF7D3FE02460B4640464946FEF76C
:1023800039FE78B1A11C04F1020508BF01366D08C1
:10239000BBE7FDF7C1FE02460B46FEF7E3FCC0E7D4
:1023A0000136B2E70134AFE70000F07F38010020CA
:1023B00030010020F8B500BFF8BC08BC9E4670474D
:0C23C000F8B500BFF8BC08BC9E46704792
:1023CC003F065B4F666D7D077F6F777C395E797159
:1023DC00C0F9A4B0999282F880908883C6A1868EA9
:0823EC00B5200008D91000081B
:0423F400B11000081C
:1023F800080000200000000000000000400200204B
:10240800A8020020100300200000000000000000C7
:1024180000000000000000000000000000000000B4
:1024280000000000000000000000000000000000A4
:102438000000000000000000000000000000000094
:102448000000000000000000000000000000000084
:102458000000000000000000000000000000000074
:102468000000000000000000000000000000000064
:102478000000000000000000000000000000000054
:102488000000000000000000000000000000000044
:1024980001000000000000000E33CDAB34126DE6E1
:1024A800ECDE05000B00000000000000000000004A
:1024B8000000000000000000000000000000000014
:1024C8000000000000000000000000000000000004
:1024D80000000000000000000000000000000000F4
:1024E80000000000000000000000000000000000E4
:1024F80000000000000000000000000000000000D4
:1025080000000000000000000000000000000000C3
:102518000000000000000000780300200000000018
:1025280059F3F8C21F6EA501000000000000F03F3B
:0400000508000110DE
:00000001FF
